:020000020000FC
:200000000000000000000000000000000000000000000000000000000000000000000000E0
:20000800DEFFED04DFC00015D8400215D8800315D8C00415D9000515D9400615D98007156A
:20001000D9C00815000B307ADA000915DA400A15DA800B15DAC00C15DB000D15DB400E15C4
:20001800DB800F15DBC01015D9401115EBFFFF04DBC012150009313A2880004C10000326FA
:2000200020000226A0000EC000000306DF401215E8BFFF17003DA03AD9401117DF4012175E
:20002800DFC000172801707AD8400217D8800317D8C00417D9000517D9400617D9800717F7
:20003000D9C00817DA000917DA400A17DA800B17DAC00C17DB000D17DB400E17DB800F17CA
:20003800DBC01017DEC01304EF80083ADEFFF904DFC00615DF000515DF0005040005313A9B
:20004000E0BFFF15E0BFFF17E0BFFE15E0BFFE17E0BFFB15E03FFD1500800044E0BFFC157E
:20004800E0FFFB17E0BFFC171884703A1005003A1000101E00C0007418D9E704E0BFFD175F
:200050001080022410C9883A00C0007418D9E704E0BFFD171080022410C5883A108001049A
:2000580020C0001711000017E17FFD17183EE83A00000706E0BFFC171085883AE0BFFC15B7
:20006000E0BFFD1710800044E0BFFD15003FE4060005313AE0BFFE15E0BFFE17E0BFFF1596
:20006800E0BFFF17E0BFFB15E0BFFB171005003A1000011E003FD706DFC00617DF00051712
:20007000DEC00704F800283A0000000000000000000000000000000000000000000000006D
:20007800000000000000000000000000000000000000000000000000000000000000000068
:20008000000000000000000000000000000000000000000000000000000000000000000060
:20008800000000000000000000000000000000000000000000000000000000000000000058
:20009000000000000000000000000000000000000000000000000000000000000000000050
:00000001FF
